:02000002D0002C
:1040000000400D007CA80D00000006000C0005011A
:084010000401BD0B00000000DB
:0440180084920D0081
:1040200009480A49884208B505D0094A824202D0A7
:10403000121A05F03BF80748074A0021121A05F04A
:1040400043F8014808BD00BFE8E40320ECA70D00D9
:1040500050E5032050E50320F0E7032070B5074E3C
:10406000074C03F0B7FFA41BA4080025A54200D10C
:1040700070BD56F8043B98470135F7E7B0A70D002F
:10408000D4A70D0000F070BC08B500F0C9FDBDE874
:10409000084003F061BF02F055BD02F053BD02F0CD
:1040A00059BD000008B5034A00210C2002F09EFC17
:1040B000FEE700BF6D660D000078B0FA80F04009A1
:1040C000704701230370704737B5044608460191D5
:1040D00005F038F86368A268451CE818904208D8D3
:1040E000206801992A46184404F0E0FF60682844DB
:1040F000606003B030BD000038B584690A4B0360CE
:1041000005467CB16368013B63605BB92368204668
:104110009B689847A368013BA3601BB923682046AE
:10412000DB689847284638BDBCA40D0008B502F0EE
:10413000A5FA034B1860BDE8084002F093BC00BF2D
:10414000D4E7032003682BB14268934202D2184699
:1041500004F096BF0020704738B50568044645B1A5
:1041600043689D4205D2284604F0ECFF0130054427
:104170002560204638BD000038B504460B46D0E91E
:1041800001012568044A091A284402F0F3FC636817
:1041900001300344636038BD98920D0038B5044681
:1041A0000B46D0E901012568044A091A284402F0A7
:1041B000E1FC636801300344636038BD9B920D00ED
:1041C00038B50B4C0546204601F068FD204601211C
:1041D00001F0A5FB4FF00113296800222046C4E935
:1041E000042302F060FF2046BDE8384001F0C2BF62
:1041F000B0E5032008B5086804F042FF012104205F
:1042000003F069FF0121052003F065FF062001216D
:1042100003F061FFBDE808404FF4FA6002F0CABC49
:1042200008B500234377006803F0ECFBBDE80840C5
:1042300002F040B92DE9F0438F188FB0B942CDE9B3
:10424000051706468946904680F0C28005A80D886D
:10425000FFF782FF03689F4240F2BA800598037817
:10426000412B49D1013004F00BFF052837DDFF2435
:1042700047F276239D4200F0D38041D847F2612374
:104280009D4200F0A88047F264239D426BD046F621
:1042900070539D4241D1784D784EDFF8F4810598F6
:1042A000874240F295800378412B4BD1013004F0D6
:1042B000E7FE052839DDFF2405A8FFF74DFFDDF8EF
:1042C00014902946484604F02BFF014600283DD1B2
:1042D000204603F0EFFE05A8FFF73EFFDFE7059855
:1042E000013004F0CDFE0028C1DB0598013004F058
:1042F000C7FE0E30C4B2BBE705A8FFF723FFF9E7FE
:1043000047F264739D424FD047F276739D4200F0AE
:10431000978047F261739D426FD00023CDE901334E
:1043200002220092728B19463AE00598013004F09F
:10433000A7FE0028BFDB0598013004F0A1FE0E3077
:10434000C4B2B9E705A8FFF7FDFEF9E731464846D4
:1043500004F0E6FE28B14146484604F0E1FE00289C
:10436000B9D10121B4E70AAB4549079307A8102347
:104370000025CDE90853FFF7A7FE07A82146FFF760
:10438000FBFE204603F0C0FE014607A8FFF706FF2C
:10439000089BCDE90155013B0093079B2A46142158
:1043A000304600F05FFB13E005A8FFF7D5FE036879
:1043B0009F420DD9A4B20121204603F07BFE05A83F
:1043C000FFF7C0FE011E18BF0121204603F083FE47
:1043D0000FB0BDE8F0830AAB079307A81023294963
:1043E0000025CDE90853FFF76FFE07A82146FFF728
:1043F000C3FE204603F09BFEC6E705A8FFF7ACFE10
:1044000003689F42E4D9A4B20121204603F052FE82
:1044100005A8FFF797FE0146204603F09FFED7E769
:1044200020468DF8284002F047F803460AA823B139
:10443000154A934201D09847CAE702F039F8C7E716
:1044400005A8FFF789FE059B8DF81C40A3EB090129
:10445000A8EB01012046CDE90A310C9102F036F8B3
:1044600003460AA907A823B1084A934201D09847F6
:10447000AEE702F01EF8ABE79F920D00A2920D008E
:10448000AA920D00AD920D00B1640D00B3640D0051
:10449000A6920D002DE9F0418CB004AF0446052230
:1044A0000068391D02F02FFFB8B3052804D00020A2
:1044B0002037BD46BDE8F081B7F80520130A43EA6E
:1044C0000223B7F80720A7F8053099B2130A43EA88
:1044D00002231FFA83F8A7F807300029E7D03B79B9
:1044E00023BB01F0E3FF0246E060607FB7F80730CE
:1044F000C0B9B7F80510012914D1092B0FD0C82B6A
:1045000001D0042BD4D1012562612046657700F0EB
:1045100057FBFFF70BFE01F0CDFF0120C8E7032397
:104520006377C5E7581F18BF0120C1E7B8F5806F52
:1045300003D92046FFF774FEEFE708F1080323F0E4
:1045400007036E46ADEB030D04AD206842462946D5
:1045500002F0D9FE80454FF000007FD1B7F8073058
:10456000E85401F0A3FF3B79E060142B00F0A68033
:1045700048D80F2B00F0A28007D8022B48D0062B7A
:1045800051D02046FFF74CFE58E0112BF9D1002303
:104590003B70B7F807302B449D42C7E903534DD217
:1045A00007F10C00D5F80080FFF7D6FDFB68B7F8DF
:1045B00007105D1B4D1BC7E905357B68FD61C3F323
:1045C0000F236383644B984500F0BF8000F28C801A
:1045D000A3F57F236FF400721344984500F09D808B
:1045E00079D8A3F50033063B984500F09C8003F58D
:1045F0000033033398456BD107F11401384601F0BD
:1046000058FF65E0292B1BD0372B17D01D2BB8D1B5
:10461000637F43B901236377204600F0D1FAFFF7A7
:1046200085FD01F047FF0023C821B7F80520009160
:10463000CDE901331946204600F014FA01200DE0BF
:10464000A3681BB9402002F07DFAA060B7F807808C
:10465000A8444545C7E9055802D30020B54627E7D9
:1046600029464022A06804F075FDA368002583F860
:104670003F5007F11400FFF76FFD036843451BD25D
:10468000786920B1BB69984214D204F0FDFC85B270
:10469000206803F0B7F92368A2685A631D870023D6
:1046A000637701F003FFA0F59C500838C4E90300CC
:1046B0006061C3E72846EAE75025E9E77B68B7F879
:1046C0000720C3F30F23638329462046FFF7B2FD7B
:1046D00000236383B2E7214B9845F9D107F1140118
:1046E000384601F0E6FEF3E71D4B984521D003F173
:1046F0009F6303F5003303F5807398451FD003F1E2
:104700006E4303F5302303F586739845E0D107F136
:104710001401384601F0CDFEDAE707F114013846FE
:1047200001F0C7FED4E707F11401384601F0C1FEDD
:10473000CEE707F11401384601F0BBFEC8E707F1E8
:104740001401384601F0B5FEC2E707F114013846FE
:1047500001F0AFFEBCE700BF7666730064626700DD
:1047600061636F6E2DE9F04104468CB00D46FFF792
:10477000DDFC637F022B00F0A880237F628B013376
:10478000DBB223770AB1012516E0022BFBD82068A3
:1047900002F057FFB8B125B9206803F0D9F8002816
:1047A00011DD2046FFF776FE05460028F4D120688B
:1047B00003F028F901F07EFE237F013B2377284692
:1047C0000CB0BDE8F08101F071FE0646206802F0F1
:1047D00038FF677F012F054629D120B96661204641
:1047E000FFF71EFDE8E7E3684FF21862F31A934201
:1047F00004D92046FFF714FD0025DDE74AF6C8720C
:10480000934203D82369F31A9342BCD9636941F2F6
:104810007072F31A9342B6D90023CDE901330093A5
:104820001A460621204600F01DF96661ABE7002F0D
:10483000A9D16269B21A40B141F270739A42A2D909
:10484000206803F0DFF86777D6E741F288339A42B1
:1048500099D9206803F0D6F8D4F800C0DCF834E029
:10486000BCF83880BEF1000F0BD02B464246714693
:10487000604603F035F9431E5D425D418DB96661C6
:104880009AE7134B06930CF120070FCF07AD0FC526
:104890003B682B704246734606A9604602F0DDFF76
:1048A000E9E76368059301261846268304F04AFC6D
:1048B0000022CDE90122059B009032461D212046B1
:1048C00000F0D0F82369636176E7002577E700BF41
:1048D0002CA40D002DE9F04115468CB0044604359A
:1048E00040F6B8300F46984601F0DEFD0FCD01AE20
:1048F0000FC62B683370676001F0D8FDA0F59C509F
:10490000083801AFC4E9030060610FCF07AE0FC6DE
:104910003B68337007AF0FCF25684FF0000CC5F828
:1049200034C0A5F8388020350FC533682B70664633
:1049300044F24F67206803F065F8667701F0B6FD32
:104940000546637F012B0CD001F0B0FD401BB8423F
:1049500004D800212046FFF705FFF2E7637F012B13
:10496000E8D10CB0BDE8F08130B5012189B0052057
:1049700003F0A0FB0121062003F09CFB012107208E
:1049800003F098FB0021032003F094FB002110208A
:104990002A4D03F08FFB00210F2003F08BFB03F067
:1049A0001BFC02F0AFF9284601F0E2FD284601F0B9
:1049B00075F928460121002400F0B1FF4FF00113E2
:1049C000C5E904431E49284602F06DFB28461D4DEB
:1049D00001F0D0FB284601F05DFD284601F050FDB6
:1049E0002146042003F077FB2146052003F073FBEA
:1049F0002146062003F06FFBA2230093AC22EA239A
:104A0000A72102A802F03CFA42F2823302AA0E4821
:104A10000E49FFF75FFF21460B48FFF7A3FE28462C
:104A200001F0CCFC0A4B18800A4B1C700A4B1C701E
:104A30000A4B1C700A4B1C7009B030BDB0E5032056
:104A4000B0920D0040E6032054E50320E6920D00ED
:104A50003CE6032028E6032022E6032023E6032089
:104A600024E603202DE9F04F83B000AF0446006830
:104A70003D6B884616469946EB4602F0E2FD00285B
:104A80007FD0B8F11D0F04D84C4B23FA08F3DB0795
:104A900002D4637F012B74D146B9668B36B9238B60
:104AA00001339BB2002B71D02383268BA8F10C031A
:104AB000082B16D8D4E90323934238BF134603F1D9
:104AC000420A01F0F3FCAAEB0000002860DB0021A1
:104AD0002046FFF747FE01F0E9FCAAEB00000028A2
:104AE000F5DAB9F1000F5AD06B1D7A6B002ABA6B58
:104AF00008BF002203EB020A0AF1070323F00703B1
:104B0000ADEB030DBB6BC7F804D0EA18C2F3072363
:104B100076BA43EA02238DF80080ADF80160ADF863
:104B20000330B9F1000F3CD0002D3AD02A46494657
:104B30000DF1050004F0BAFA681D7B6B3BB1BB6B4D
:104B40002BB11A467B68796B184404F0AFFA002544
:104B500055452AD2AAEB05027B682068B2F5806F22
:104B600028BF4FF48062591902F055FD0646002017
:104B700001F09AFCBEB9206802F044FF667701F0AC
:104B800099FC0C37DD46BD46BDE8F08F01238BE76D
:104B9000217F0029A5D12046FFF7E4FDA1E70523E9
:104BA000A3E70520C9E73544D2E703D02046FFF745
:104BB00037FBE6E701F07AFC2061E2E745000020E0
:104BC00000B595B004AB00220193492300930292F3
:104BD000034B1121FFF746FF15B05DF804FB00BF42
:104BE00037940D0030B5ADF2244D08AB00240546D6
:104BF000059305A84FF48063CDE90643FFF764FAF7
:104C0000069B013B0093CDE90144059B22460E2102
:104C10002846FFF727FF0DF2244D30BD00000000AD
:104C20002DE9F047B448B54DADF5866D01F0C9FCEE
:104C3000B14801F0C6FC2B78002B00F09181B04BFD
:104C40001B78002B00F08C81AB48AE4DDFF8088359
:104C500001F0D0FC20B101232B70002388F8003034
:104C6000A54801F0D1FC0446002800F098800023FC
:104C70002B70012388F800300021042003F02BFA68
:104C80000021052003F027FA0021062003F023FA73
:104C90000F2003F04CFA80B203F034FD92A3D3E965
:104CA000002303F099FD92A3D3E9002303F0BEFE95
:104CB000954B002203F0D8FB944B002203F08CFDAF
:104CC00006460F4608A892490CAC02F0D6FB914963
:104CD00008A802F054FC47EC106B0621204602F0B5
:104CE0001FFC214608A802F046FC204602F07AFB91
:104CF000894908A802F043FC884908A802F03FFC53
:104D0000874B00223046394603F066FD854B002272
:104D100003F08CFE0022844B03F0A8FB41EC100B47
:104D20000621204602F0FCFB214608A802F023FCE5
:104D3000204602F057FB08A9204602F0C1FB20469E
:104D4000FFF73EFA204602F04DFB4FF480630594D6
:104D500005A800247549CDE90643FFF7B5F92146BA
:104D600005A8FFF709FADDE906310598704AC91A66
:104D7000CDE90067184401F0FDFE069B01301844A0
:104D8000069001380090CDE90144059B6948224610
:104D90001421FFF767FE08A802F024FB51E02B78EE
:104DA000002B49D06448DFF8ACA1644F01F068FBE8
:104DB000614801F003FB5649064608A802F05DFB76
:104DC000BAF80030B3420CAD42D90121042003F0FF
:104DD00082F92146052003F07EF92146062003F0E2
:104DE0007AF93A88BAF800309A4207D354495148C0
:104DF000FFF7F8FE534908A802F0C1FB524908A882
:104E000002F0BDFB0A223146284602F076FB294615
:104E100008A802F0B0FB284602F0E4FA08A92846E8
:104E200002F04EFB2846FFF7CBF9284602F0DAFAEB
:104E300008A83E8002F0D6FA98F80030002B7FF4E4
:104E40001BAF642001F0B6FE0DF5866DBDE8F0875E
:104E5000DFF80891B9F80030B3421AD9214604208E
:104E600003F039F90121052003F035F92146062028
:104E700003F031F93B88BAF800209A4203D2B9F81E
:104E800000209A42BAD831492A48FFF7ABFE2F4991
:104E9000B1E7B3D22146042003F01DF921460520D5
:104EA00003F019F90121062003F015F93A88B9F841
:104EB00000309A42A2D84FF480632549079305A891
:104EC000CDE90554FFF700F9069B1A48013B009312
:104ED0000E21CDE90144059B2246FFF7C3FD1C4985
:104EE00089E700BFAFF300806666666666660A40C3
:104EF0000000000000FEAF40B0E5032022E60320E2
:104F000028E6032023E603200000E03F000059408C
:104F100029940D00B3930D0028940D00BD930D004E
:104F2000000022400000144000004040CA930D00E1
:104F3000CD930D0054E5032040E603203CE603201A
:104F400007930D002D930D00A2930D0057930D00B4
:104F50007D930D0026E6032024E6032020E60320AF
:104F60000021042003F0B7F80021052003F0B3F876
:104F70000021062003F0AFF8022003F0C5F8064632
:104F80000E2003F0D4F8044602F00AFF1FFA84F85A
:104F900007460A22414602F090F8384602F077F8B8
:104FA000002E37D1434E3378002B55D14249434D23
:104FB0000CA802F062FA0CA8FFF702F90CA802F0A4
:104FC00011FA3F49A5F8008008A802F056FA0A2213
:104FD00029880CA802F091FA0CA908A802F0CBFAD3
:104FE0000CA802F0FFF908A90CA802F069FA0CA8B5
:104FF000FFF7E6F80CA802F0F5F9012333704FF43F
:10500000FA6001F0D7FD08A802F0ECF94FF4FA605D
:1050100001F0D0FD2B4908A802F02FFA0A224146E0
:105020000CA802F06AFA0CA908A802F0A4FA0CA8CD
:1050300002F0D8F908A90CA802F042FA0CA8FFF770
:10504000BFF80CA802F0CEF94FF4FA7001F0B2FDEF
:1050500008A802F0C7F9F7E62B78002BD6D116493D
:10506000194E0CA802F009FA0CA8FFF7A9F80CA831
:1050700002F0B8F91549A6F8008008A802F0FDF979
:105080000A2231880CA802F038FA0CA908A802F00C
:1050900072FA0CA802F0A6F908A90CA802F010FAFE
:1050A0000CA8FFF78DF80CA802F09CF901232B70D7
:1050B000A5E700BF28E60320D3930D0026E60320D2
:1050C000DF930D0014940D0020E60320F9930D00EA
:1050D00038B51B4D0021012001F0A8FC284602F044
:1050E000DBFC05F11C0001F087FE0024154A16497F
:1050F0006C6328462C8703F097F8144B14489C6186
:10510000C3E90054C3E90244C3E904449C83114C3D
:1051100001F027F90721204601F0FCF920460E4C4A
:10512000084A0E4903F080F80D49204602F0A5F91F
:105130002046044A0B49BDE8384003F075B800BF6B
:1051400074E5032050E50320F9400D0054E50320E9
:1051500040E60320B0E503202CE60320E1640D00C7
:105160002A940D00E5730D002DE9F04F85B01F4620
:10517000BDF93880BDF83C30A8EB0209A7EB010A65
:10518000B9F1000FB8BFC9F10009BAF1000FB8BFFB
:10519000CAF1000AD14583460C46154604DD3A465D
:1051A0002C4647460D469046BC4205DD2A464546FC
:1051B000904622463C4617463E1BB2B20092A8EBF0
:1051C0000502002AB8BF52420192C6F3C03202FA69
:1051D00086F64545B4BF01224FF0FF3276100292A9
:1051E000BC421CDCDBF800200393D145D2F81880C8
:1051F000C7BF294622462A4621465846C047019A3B
:10520000039BB61AB1B236B2002E05DA029A1544E3
:10521000009A56182DB236B2013424B2E0E705B038
:10522000BDE8F08F704710B404682469A4465DF8A7
:10523000044B604730B40468BDF808500295A46B75
:10524000A44630BC604730B40468BDF808500295ED
:10525000E46BA44630BC604770B4BDF90C50BDF897
:1052600010600468CDE90356246CA44670BC604706
:105270002DE9F3411C460368BDF820805B690546B3
:105280001646013C34440F4624B298472B68CDF8AB
:10529000048000949C6A28463B4632463946A04723
:1052A0002B68DB6A284602B0BDE8F04118472DE9BB
:1052B000F3411D460368BDF820805B69044617462C
:1052C0000E469847CDE9007822686B1E3344956AF4
:1052D00020461BB23A463146A8472368DB6A20467F
:1052E00002B0BDE8F04118472DE9F3471E460368B8
:1052F000BDF928905B69BDF82C800C460546174621
:1053000098472644B4422B680BDACDF80080D3F8D6
:1053100020A021464B463A4628460134D04724B2C5
:10532000F0E7DB6A284602B0BDE8F047184713B53E
:1053300002680191B0F90E100091146CB0F90C30B4
:1053400000221146A04702B010BD2DE9F3471D46CB
:105350000368BDF82C805B69BDF9289004460F46B0
:10536000164698472368CDF80080D3F824A032462B
:105370002B4639462046D0472368CDF8008009F1F6
:10538000FF323244D3F824A039462B46204612B2CD
:10539000D0472368CDF80080D3F820A032464B4692
:1053A00039462046D0476B1ED9192368CDF80080B6
:1053B0001D6A20464B46324609B2A8472368DB6A7D
:1053C000204602B0BDE8F047184770472DE9F74383
:1053D00099421646BDF92870BDF82C9002688046A7
:1053E0000D461C4613D1BE42C8BF3346CDF82890A7
:1053F000C4BF3E461F467B1C946B9B1B1BB23246B0
:1054000029464046A44603B0BDE8F0436047BE428B
:105410000AD19942C2BF0B4625461C46631CCDF8F3
:105420002890D46B5B1BE9E753699847CDE9007975
:10543000D8F8003040469F6A324623462946B8478E
:10544000D8F80030DB6A404603B0BDE8F0431847A7
:1054500001F00303B0F90A208376C907B0F90830D8
:1054600059BF8381C2818281C381704730B5428137
:10547000C281074A074D0181002481814FF0FF312D
:10548000C0E905124460056004610477046230BD20
:10549000010100018C990D002DE9F04F89B0CDE993
:1054A00002120268BDF948800493BDF94C3052697C
:1054B0000593BDF850A00446904718F107024FF03D
:1054C000000648BF08F10E024FEAE20B019635468E
:1054D000039B019ABDF904109A18059B8B4212B2E6
:1054E00027DD049B33444FF0000906930FFA89F03F
:1054F00080451FFA89F117DD4F0705BF069BC010D5
:105500006D001D5C18BFEDB22B060AD5029B20680A
:1055100007921944836909B21F4620465346B8478B
:10552000079A09F10109E1E7019B013301935E4408
:10553000CEE72368DB6A204609B0BDE8F04F184784
:105540002DE9F04F2DED028B91B01646026ABDF8A1
:1055500074809DF878509DF87C4003911F46BDF8FB
:10556000703004938346002A40F0C580B0F90C30B7
:105570008B4240F34C81B0F90E30B34240F3478187
:10558000062313FB0513002B40F3418106EBC403F4
:10559000002B40F33C81037F1BB9AF2F84BF013741
:1055A000FFB2DBF8003058465B6998470522099244
:1055B00000220592984A07EB8703D3180C93B3B2E5
:1055C0000693059A0C9B9B5C0793ABB20B93BDF8BB
:1055D0000C300893039B02FB05F919FA83F90FFAC3
:1055E00089F308EE103A08230A93039B02EB030A9F
:1055F0004FF000090FFA8AFA079ADBF80030D20759
:1056000052D5012D1FFA89F23ED1012C3CD19B6964
:1056100006991F46049B0A4412B251465846B847A1
:1056200009F101034FFA83F9079B5B0807930A9B73
:10563000013B13F0FF030A93DED1059F01377BB2D4
:105640000593099B013B13F0FF030993B9D1049B18
:1056500043450FD0012DDBF800303BD1012C39D16F
:105660000899CDF8008005311C6A3246082309B23A
:105670005846A047DBF80030DB6A584611B0BDEC55
:10568000028BBDE8F04F1847069914FB02F20A445A
:10569000049901910094DB6918EE101A1F4612B2AA
:1056A0002B465846B847BBE7049A4245B8D0012D6F
:1056B0001FFA89F207D1012C05D19B6906991F4673
:1056C0000A444346A8E70699CDF8048014FB02F289
:1056D0000A44DFE70B9ACDF8048002EB8201089AB6
:1056E000E4000A4411460094DC6932462B4609B2B4
:1056F0005846A047BEE7137A516812680D92FF1A08
:10570000FFB201EBC70331F8372006929A7809926D
:10571000DA780B92012D93F9052093F906A00A92ED
:1057200001D8012C57D9BDF9283008930FFA8AF314
:105730000793DBF8003058465B699847B3B24FF0E7
:1057400000080E931AFA86F3C14647460F930B9B47
:105750009F428FD2079B0E9A3B4403FB04230022F7
:1057600005920F9A1BB202EB070A08EE103A0FFAE5
:105770008AFA4346099A0599914241D25A1CD2B2FB
:105780005B070C9207D1069B06990D9A01339BB2D9
:1057900012F80190069319F0800F12D0012DDBF85A
:1057A0000030BDF80C101AD1012C18D10A9A9B694F
:1057B0001144059A11441E465246049B09B25846AC
:1057C000B047059E0136F3B24FEA490905935FFAE7
:1057D00089F90C9BCEE70023CDE90733A9E70598AB
:1057E000089A024402FB0511049ACDE90042DB69E4
:1057F00018EE102A1E4609B22B465846B047E0E77D
:10580000099B013798445FFA88F8FFB29FE711B00F
:10581000BDEC028BBDE8F08F82940D00F0B5026AFA
:1058200085B004460B46002A34D10A2908D1438AA0
:105830000282427E03EBC2036382012005B0F0BD09
:105840000D29FAD0E17E007E657E71B1B4F9106059
:10585000062111FB0061B4F90C60B142C1BFB4F97B
:105860001210228201EBC5026282E28A0192A28AB0
:105870000092CDE90205B4F91220B4F910102046C7
:10588000FFF75EFE237E228A03EB430302EB430312
:105890002382D2E70A2907D100230382937A417E2B
:1058A000428A01FB0323C7E70D29C6D0157AA94216
:1058B000C3D3517A9942C0D351685D1BEDB201EB5D
:1058C000C505AF782FB3E97819B3E17E007E667E17
:1058D00091B195F905103944B4F9107000FB0171CC
:1058E000B4F90C70B94207DD00272782B4F9121011
:1058F000927A02FB06126282E28A0192A28A0092E6
:10590000CDE90206B4F91220B4F910102046FFF7D1
:1059100017FE2979237E228A01FB0323B8E7012998
:1059200038BF0121017641767047704710B51021CC
:10593000044602F07EFC204610BD0EB403B503AB56
:10594000002153F8042B019301F0D5FB02B05DF860
:1059500004EB03B07047000073B504460846227993
:10596000A36832B1A3B90B4902B0BDE8704001F0A1
:1059700087BB094A267B094D0949647B012E18BF64
:105980002946CDE900140749FFF7D7FF02B070BDE3
:10599000054AEFE7ED990D0029940D00E9990D00F6
:1059A000E5990D00039A0D00DC990D0010B5044B2C
:1059B00003600446C06A08B101F0CCF8204610BD6F
:1059C000DC9E0D0010B50446FFF7F0FF2046502185
:1059D00002F02FFC204610BD002910B54BDBB0F9BA
:1059E0000C408C4247DD002A45DBB0F90E40944262
:1059F00041DD847E022C1FD0032C26D0012C04D143
:105A00000489D24314440A4621B2012B23D0022B2D
:105A100032D083BB002A13460489C06AB8BFD31DA5
:105A2000DB1013FB041102F0070201239340425CD8
:105A300022EA030242541EE00489C94321444489F6
:105A4000D243224409B212B2DFE74489C9430C446D
:105A5000114622B2D9E7002A04891346B8BFD31DE4
:105A6000DB1013FB0411C36A02F00700012282401D
:105A7000585C02435A5410BD002A13460489C06A78
:105A8000B8BFD31DDB1013FB041102F00702012382
:105A900003FA02F2435C5A40CCE710B5044690F991
:105AA0003600012180B202F016FB606A18B1BDE831
:105AB000104001F086BB10BD70B504461D4600269F
:105AC000FFF7D4FC114B2360666215B902F084FB2A
:105AD0000546FF2384F8333084F836309DF91030C2
:105AE00084F837300A4BA363012384F83C30059BCC
:105AF000A3644FF6FF72069BA286C4E90A56266489
:105B0000A4F84460E364204670BD00BFDC9E0D0035
:105B1000289A0D00F8B50446806A0D4690B194F9B4
:105B2000301001F025F9A06A036800219B689847AE
:105B3000A06A036829469B689847A06ABDE8F840B8
:105B400001F01DB994F93530014698B202F0C3FA5C
:105B5000606A20B12946BDE8F84001F0B9BB0826CB
:105B6000802794F9330005EA070180B202F0B3FA06
:105B700094F93400012180B202F0ADFA94F93400B6
:105B8000002180B202F0A7FA013E4FEA5707E8D1A0
:105B9000F8BD38B50446806A0D4680B1A16C01F0AD
:105BA000ADF8002D204614BFA721A621FFF7B2FFB4
:105BB000A06A88B1E16CBDE8384001F09FB8606A26
:105BC00018B104F1380101F015FB94F936000021F9
:105BD00080B202F080FAE4E72046BDE83840FFF7E3
:105BE0005CBF2DE9F8430446806A0D468F1840B328
:105BF00094F9301001F0BCF8A06A036800219B689A
:105C000098470126BD42A06A17D01F2E0CD901F07B
:105C1000B6F894F93010A06A01F0AAF8A06A0368F7
:105C200000219B6898470126A06A15F8011B0368AC
:105C300001369B689847F6B2E4E7BDE8F84301F007
:105C40009EB894F93530014698B202F044FAAF425A
:105C500022D0606A15F8019B18B1494601F038FB63
:105C6000F5E708264FF0800894F9330009EA0801A7
:105C700080B202F030FA94F93400012180B202F0CF
:105C80002AFA94F93400002180B202F024FA013E8D
:105C90004FEA5808E8D1DAE7BDE8F883B0F90A30EE
:105CA000DA1D48BF03F10E02B0F90830C06AD21005
:105CB0005A43002103F008BA2DE9FF411E46C36A8A
:105CC0009DF8288004460F461546B3B12046FFF7DD
:105CD000E5FFB4F90A00B4F9081020281FDC2023DE
:105CE0000122CDE90132203873237339009300EB90
:105CF000D070894B01EBD1711FE0B0F90A30D81D8B
:105D000048BF03F10E00B4F90830C010584300F04A
:105D100019FFE0620028D9D104B0BDE8F08140232A
:105D20004FF0010CCDE9013C522340385239009329
:105D30007A4B00EBD07001EBD17140F34F0241F38D
:105D40004F012046FFF7A8FBA06A84F831700028B5
:105D500078D0002D74D1B4F90A30202B0CBF3C252B
:105D60003D2584F83050B8F1000F01D000F0CAFF93
:105D7000FEB194F9370000281BDB012180B202F04C
:105D800099F994F93700012180B202F0A4F90120B9
:105D900000F010FF94F93700002180B202F09BF967
:105DA0000A2000F007FF94F93700012180B202F0C9
:105DB00092F9A06A002874D0A16C00F09FFF042221
:105DC00057492046FFF70DFFA17A0139C9B2204695
:105DD000FFF7A0FE534904222046FFF702FF94F983
:105DE0003130012B0CBF102114212046FFF792FE09
:105DF00004224D492046FFF7F4FEA3684B4A934224
:105E00005CD14B4904222046FFF7EBFED921204606
:105E1000FFF780FE94F93130012B0CBF2221F121D4
:105E20002046FFF777FE204642490622FFF7D9FEBB
:105E3000A06A002863D0E16C00F060FF01206BE7EE
:105E40006DB28EE794F93500012180B202F032F98B
:105E500094F93600012180B202F02CF994F9360051
:105E6000012180B202F037F9656A3DB1B8F1000F47
:105E70003FF47EAF284601F093F979E794F93300B7
:105E8000012180B202F016F994F93400012180B2A8
:105E900002F010F994F93400294680B202F01BF99F
:105EA00066E7606A18B104F1380101F0A3F994F9CA
:105EB0003600002180B202F00EF980E71E4A9342BC
:105EC0000ED11E4903222046FFF78BFE94F9313094
:105ED000012B0CBF9F21CF212046FFF71BFE95E72A
:105EE000174A934292D1174903222046FFF779FEC1
:105EF00094F93130012B0CBF1021AF21ECE794F95C
:105F00003600012180B202F0E6F8606A002895D0E0
:105F100001F057F992E700BFF49C0D00349A0D0090
:105F20003C9F0D00409F0D00449F0D00800020000D
:105F30004E9F0D00489F0D0080004000529F0D00B5
:105F400060001000559F0D0070B5002ABDF810507C
:105F50003DDBB0F90A40944239DD0029BEBF5B1831
:105F60001BB20021B0F90840CE18A642C4BF631A84
:105F70001BB2002B2BDDC06AD61014FB06110144A6
:105F800002F0070001228240012DD2B216D0022D6C
:105F90000BD0E5B9D243D2B20B44994217D011F8D5
:105FA000010B104001F8010CF7E70B4499420ED0A9
:105FB00011F8010B504001F8010CF7E70B4499422E
:105FC00005D011F8010B104301F8010CF7E770BD83
:105FD000F0B50029BDF8146076DBB0F90850A9428D
:105FE00072DA002ABCBFD21813B2B0F90A40B8BFA7
:105FF0000022D718A742C4BFA31A1BB2002B63DD2F
:10600000C2F3C404C76A15FB041112F00702DBB225
:1060100007EB010423D0C2F10802D2B22C4D934207
:106020003CBF4FF0FF0CA2EB030EAD5C3CBF4CFA43
:106030000EFC0CEA0505012E07D0022E2ED04EB91B
:1060400017F801C02CEA050503E017F801C045EA7E
:106050000C057D54934237D3B0F908100C449A1ABA
:10606000D2B2072A0ED9022E1DD113462178C94378
:106070002170083BB0F90810DBB2072B0C44F5D8AF
:1060800002F0070202B3134B012E9B5C19D0022EC3
:106090001BD0CEB9227822EA030314E017F801C01E
:1060A00085EA0C05D5E7002E14BFFF250025134611
:1060B0002570083BB0F90810DBB2072B0C44F7D869
:1060C000DEE7227813432370F0BD22785340FAE7CD
:1060D0002C9F0D00349F0D0070B41446827EBDF8D5
:1060E0000C60022A0DD0032A18D0012A11D102898E
:1060F000E443144424B203960A46214670BCFFF7D9
:1061000067BF42890589E44319441444691A24B2DB
:1061100009B20396224670BCFFF716BF45891944A1
:10612000691A09B2E7E730B41446827EBDF8085018
:10613000022A0DD0032A18D0012A11D1E2180489AD
:10614000A41A24B202950A46214630BCFFF7FCBED1
:106150000289C9431144E2184489A41A09B224B23D
:106160000295224630BCFFF733BF4289C943114430
:1061700009B2E7E72DE9F8430446806A002842D0D7
:10618000A16C00F0BBFD474905222046FFF729FD21
:10619000217A01392046C9B2FFF7BCFCB4F90A30B4
:1061A000DE1D48BF03F10E06D4E90A052389F61067
:1061B00013FB06F615FA86F600283AD094F930104B
:1061C00000F0D6FDA06A036840219B68984701272C
:1061D000B542A06A24D01F2F0CD900F0D0FD94F94D
:1061E0003010A06A00F0C4FDA06A036840219B68DB
:1061F00098470127A06A15F8011B036801379B68BF
:106200009847FFB2E4E7606A18B104F1380100F082
:10621000F1FF94F93600002180B201F05CFFB2E793
:1062200000F0ADFDA06A78B3E16CBDE8F84300F082
:1062300065BD94F93500012180B201F04CFFB542F3
:10624000F0D0606A15F8019B18B1494601F040F89A
:10625000F5E708274FF0800894F9330009EA0801B0
:1062600080B201F038FF94F93400012180B201F0CE
:1062700032FF94F93400002180B201F02CFF013F7D
:106280004FEA5808E8D1DAE794F93600012180B2E4
:1062900001F021FF606A18B1BDE8F84300F091BF3A
:1062A000BDE8F883589F0D0000210A22C0E90012C2
:1062B0007047002310B50446C171837188B201F0A4
:1062C00023FF08B10323A37100F0D8F9206010BDAB
:1062D00038B50C4605461146A0B201F0EBFE21464A
:1062E0002846BDE83840FFF7E4BF38B50446C0791A
:1062F00001F00AFFA579003825F0080318BF012036
:10630000C5F340058542A3710AD000F0B7F9A3791F
:10631000206083F00203A371A079C0F3C00038BDF0
:1063200000F0ACF92368C01AA3889842F4D3A3798B
:1063300003F00103AB42EFD000F0A0F9A379206095
:1063400083F0010343F00803E5E7807900F00900DA
:10635000A0F108035842584170470368C9B29B68CE
:106360001847704738B505460C460068602100F0B4
:10637000FBFC2868036821469B6898472868002131
:1063800000F0F9FC08B1002038BD28680222602125
:1063900000F0E7FC286803681B6998470028F2D0E2
:1063A000286803685B6998470446286803685B6946
:1063B0009847E4B244EA002080B2E5E70921FFF7FC
:1063C000D1BF70B504460E4600686021154600F046
:1063D000CBFC2068036831469B689847E9B2206887
:1063E000FFF7BBFF290A2068FFF7B7FF206800F01E
:1063F000C6FCB0FA80F0400970BD70B504460D4689
:106400001646FFF7AFFF00F47F4040EA0602294638
:106410002046BDE87040FFF7D4BF70B504460D4676
:106420001646FFF79FFFC0B240EA062229462046E3
:10643000BDE87040FFF7C5BF08B5FFF793FFC0F395
:10644000072008BD2DE9F04104469DF818700D465F
:10645000984616466AB1FFF785FFC0B200EA080306
:1064600043EA07022946204636B1BDE8F041FFF76E
:10647000C4BFFFF7E1FFF1E7BDE8F041FFF7CDBF93
:1064800007B500210091FE230122FFF7DBFF03B0D7
:106490005DF804FB07B501220092FE230321FFF7FC
:1064A000D1FF03B05DF804FB00F084BB00F0E6B858
:1064B000704770477047000003065ABF024B53F8FD
:1064C00020000020704700BF609F0D0003065ABFE8
:1064D000024B53F820000020704700BF60A10D0060
:1064E00010B5064B03600446006D08B100F09EF83D
:1064F0002046FFF75BFA204610BD00BF68A30D00E1
:1065000010B50446FFF7ECFF2046702101F091FE24
:10651000204610BD30B585B004460D4601F05CFE46
:10652000104A1149CDE901214FF0FF328021034685
:10653000009220462022FFF7BFFA0C4B2360002375
:10654000C4E9143504F15800FFF7AEFE04F1600011
:10655000FFF7AAFE04F16800FFF7A6FE204605B08B
:1065600030BD00BF801A0600A086010068A30D00A0
:1065700013B50446503000F051F8636DD90705D5C6
:106580000222042104F15800FFF7A2FE636D9A076E
:1065900005D50022032104F16000FFF799FE636D29
:1065A0005B0705D50222114604F16800FFF790FE53
:1065B000012300933C2202212046FFF77DFB02B01D
:1065C00010BD10B5436DD907044602D55830FFF70A
:1065D0008CFE636D9A0703D504F16000FFF785FE1A
:1065E000636D5B0705D504F16800BDE81040FFF757
:1065F0007CBE10BD436D024613F0010003D002F1D2
:106600005800FFF7A2BE7047436D024613F0020028
:1066100003D002F16000FFF798BE704708B5024B47
:106620001B681B6B019308BD4802030008B5024BB1
:106630001B685B6B019308BD4802030008B5024B61
:106640001B685B6C019308BD4802030008B5024B50
:106650001B689B6C019308BD4802030008B5024B00
:106660001B685B68019308BD1802030008B5024B64
:106670001B68DB68019308BD1802030008B5024BD4
:106680001B685B69019308BD1802030008B5024B43
:106690001B685B68019308BD2C02030008B5024B20
:1066A0001B689B68019308BD2C02030008B5024BD0
:1066B0001B68DB68019308BD2C02030008B5024B80
:1066C0001B681B69019308BD2C02030008B5024B2F
:1066D0001B685B69019308BD2C02030008B5024BDF
:1066E0001B689B6A019308BD2C02030008B5024B8E
:1066F0001B681B6B019308BD2C02030008B5024BFD
:106700001B689B6F019308BD2C02030008B5024B68
:106710001B681B68019308BD2802030008B5024BE3
:106720001B68DB68019308BD2802030008B5024B13
:106730001B689B69019308BD2802030008B5024B42
:106740001B68DB69019308BD2802030008B5024BF2
:106750001B681B6A019308BD2802030008B5024BA1
:106760001B685B6A019308BD2802030008B5024B51
:106770001B689B6A019308BD2802030008B5024B01
:106780001B68DB6A019308BD2802030008B5024BB1
:106790001B681B6B019308BD2802030008B5024B60
:1067A0001B685B6B019308BD2802030008B5024B10
:1067B0001B681B6C019308BD2802030008B5024B3F
:1067C0001B681B6D019308BD2802030008B5024B2E
:1067D0001B685B69019308BD6C02030008B5024B9E
:1067E0001B685B69019308BD6402030008B5024B96
:1067F0001B681B6A019308BD6402030008B5024BC5
:106800001B689B6A019308BD6402030008B5024B34
:106810001B689B68019308BD6802030008B5024B22
:106820001B68DB68019308BD6802030008B5024BD2
:106830001B689B69019308BD3802030008B5024B31
:106840001B68DB69019308BD3802030008B5024BE1
:106850001B681B6A019308BD3802030008B5024B90
:106860001B689B6A019308BD3802030008B5024B00
:106870001B681B6B019308BD3802030008B5024B6F
:106880001B689B6B019308BD3802030008B5024BDF
:106890001B681B68019308BD3002030008B5024B5A
:1068A0001B685B69019308BD3002030008B5024B09
:1068B0001B68DB69019308BD3002030008B5024B79
:1068C0001B681B6A019308BD3002030008B5024B28
:1068D0001B685B6A019308BD3002030008B5024BD8
:1068E0001B68DB6B019308BD3002030008B5024B47
:1068F0001B681B6C019308BD3002030008B5024BF6
:106900001B685B6C019308BD3002030008B5024BA5
:106910001B681B68019308BD3C02030008B5024BCD
:106920001B68DB68019308BD3C02030008B5024BFD
:106930001B681B69019308BD3C02030008B5024BAC
:106940001B685B69019308BD3C02030008B5024B5C
:106950001B689B69019308BD3C02030008B5024B0C
:106960001B68DB69019308BD3C02030008B5024BBC
:106970001B681B6A019308BD3C02030008B5024B6B
:106980001B689B6A019308BD3C02030008B5024BDB
:106990001B681B68019308BD4C02030008B5024B3D
:1069A0001B681B69019308BD4C02030008B5024B2C
:1069B0001B685B69019308BD4C02030008B5024BDC
:1069C0001B689B69019308BD4C02030008B5024B8C
:1069D0001B68DB69019308BD4C02030008B5024B3C
:1069E0001B681B6A019308BD4C02030008B5024BEB
:1069F0001B685B6B019308BD6002030008B5024B86
:106A00001B681B6D019308BD6002030008B5024BB3
:106A10001B685B68019308BD2002030008B5024BA8
:106A20001B685B69019308BD2002030008B5024B97
:106A30001B68DB6A019308BD2002030008B5034B05
:106A40001B68D3F88830019308BD000020020300C2
:106A500008B5034B1B68D3F89430019308BD0000C0
:106A60002002030008B5024B1B689B68019308BD18
:106A70004402030008B5024B1B68DB6B019308BDA1
:106A80004402030008B5024B1B685B68019308BD14
:106A90004002030008B5024B1B689B68019308BDC8
:106AA0004002030008B5024B1B68DB68019308BD78
:106AB0004002030008B5024B1B681B69019308BD27
:106AC0004002030008B5024B1B685B69019308BDD7
:106AD0004002030008B5024B1B689B69019308BD87
:106AE0004002030008B5024B1B68DB69019308BD37
:106AF0004002030008B5024B1B681B6A019308BDE6
:106B00004002030008B5024B1B681B6B019308BDD4
:106B10004002030008B5024B1B685B6B019308BD84
:106B20004002030008B5024B1B681B6C019308BDB3
:106B30004002030008B5024B1B685B6C019308BD63
:106B40004002030008B5024B1B681B68019308BD97
:106B50001C02030008B5024B1B685B68019308BD6B
:106B60001C02030008B5024B1B689B68019308BD1B
:106B70001C02030008B5024B1B68DB69019308BDCA
:106B80001C02030008B5024B1B685B6A019308BD39
:106B90001C02030008B5024B1B68DB6B019308BDA8
:106BA0001C02030008B5024B1B685B6C019308BD17
:106BB0001C0203000021FFF731BF10B50446006836
:106BC00008B1FFF743FD204610BD10B583680446A9
:106BD00013B1032201469847204610BD10B5064C5C
:106BE000002320462360FFF729FD2046034A04497D
:106BF000BDE8104001F018BB50E6032050E503202B
:106C0000BB6B0D00002240681146FFF773BF0022E6
:106C100040681146FFF77EBF40680022FFF772BF51
:106C20004068002281F00101FFF75CBF002340684B
:106C30001A461946FFF74EBF002340681A46194608
:106C4000FFF740BF002240681146FFF733BF002224
:106C500040681146FFF71EBF406800220221FFF77F
:106C600021BF002340681A46FFF70CBF024B0322E6
:106C70005A60024A1A60704754E60320C8A30D0008
:106C80007047F8B5064615460C468F18BC4206D02C
:106C9000336814F8011B9B6830469847F6E728468E
:106CA000F8BD007C0022FFF751BD007C0021FFF7FA
:106CB00055BD007C0021FFF759BD007C0021FFF786
:106CC0005DBD007C0021FFF761BD10B514210446B5
:106CD00001F0AFFA204610BD10B54FF47A730446A8
:106CE00008460021C4E90113034B236020741146B8
:106CF000FFF75CFD204610BD04A40D00007C0022BF
:106D0000FFF704BD0023007C1A461946FFF706BDB5
:106D10007FB500221423CDE90122ADF804300B78B1
:106D20008DF808304B680393CB680493007C0B7A92
:106D3000059301A9FFF742FD07B05DF804FB1FB5FD
:106D4000003B8DF800104FF06401039118BF012340
:106D5000694601928DF80830FFF7DAFF05B05DF85B
:106D600004FB0123FFF7EBBF007C0022FFF7DEBC32
:106D7000C9B2FFF7F9BF007C0022FFF7DFBC012199
:106D8000FFF7F9BF704710B51821044601F051FA1A
:106D9000204610BDF0B5037D062B8DB00E4600F1E8
:106DA00004074FF0000412D000F1080515F8011D8A
:106DB0000A22304600F081F9AF42044419D0002C79
:106DC000F4D02E21304600F05FF90444EEE72F2383
:106DD0006A4639460A208DF80040FFF7FFFC6846F6
:106DE00002F0B0F933680246DB68694630469847DE
:106DF000044620460DB0F0BD10B5054B04461122E7
:106E000040F8043B002102F05FF9204610BD00BFAE
:106E10002CA40D000346074A10B543F8042B01F1DA
:106E2000100251F8044B43F8044B9142F9D10A780F
:106E30001A7010BD2CA40D00037D042B04D14068F2
:106E4000003818BF01207047062B07D143683BB9B3
:106E500083682BB9C3681BB90069F1E7002070474C
:106E60000120704710B59DF8084044EA032343EA27
:106E7000024242EA016104234160037510BD000033
:106E800037B5044D05609DF818500095FFF7EAFFEF
:106E900003B030BD2CA40D0013B5054B0360CB78B7
:106EA00000938B784A780978FFF7DCFF02B010BDB9
:106EB0002CA40D00014B024A1A6070475CE60320C7
:106EC00038A40D00002340681A46FFF7DBBD406878
:106ED00000220221FFF7E6BD002240681146FFF7BD
:106EE000D9BD002240681146FFF7E4BD0023406889
:106EF0001A461946FFF7E6BD002340681A461946B0
:106F0000FFF7E8BD40680021FFF70CBE4068002194
:106F1000FFF710BE4068002281F00101FFF7E2BDDB
:106F200040680022FFF7EEBD002240681146FFF7DF
:106F3000F1BD002240681146FFF7DCBD2DE9F043AA
:106F4000002495B016460D460746FFF755FF21462B
:106F500018220EA8009402F0B7F84023CDE90C34B3
:106F600021466B460CAA3046FFF758FC0446002821
:106F70004CD1024601216868FFF79CFD0221804642
:106F800022466868FFF796FD009E81462146002E46
:106F90003CD000293AD17368022B03D00A2B11D0C0
:106FA000F669F4E7B8F1000F0AD0716906A8043158
:106FB00007ADFFF771FF0FCD3C1D0FC42B68237089
:106FC0004146EDE7B9F1000F01D14946E8E77469A0
:106FD000102201A802F078F806238DF8143001ADD4
:106FE00004F108031834186859682A4603C20833A4
:106FF000A3421546F7D101A906A807ADFFF70AFF7E
:107000000FCD3C1D0FC42B682370DEE70098FFF7FF
:10701000FDFB384615B0BDE8F0830000024B034A83
:107020001A6000225A60704760E6032044A40D00F5
:10703000F8B506460D468F180024BD420CD03368C3
:1070400015F8011B9B6830469847031E01DB1C4462
:10705000F3E7002C08BF1C462046F8BD13B50446D4
:10706000084659B1019102F06DF823680199DB6877
:107070000246204602B0BDE81040184702B010BDDD
:1070800008B5FFF7EBFF08BD03689B68184738B5E4
:107090000D210546FFF7F8FF0A2104462846FFF7B1
:1070A000F3FF204438BD38B50546FFF7D7FF044647
:1070B0002846FFF7ECFF204438BD30B58BB00023E5
:1070C0008DF82430012A98BF0A2209AC0D46B1FB85
:1070D000F2F101FB125303F0FF03092B94BF30338D
:1070E0003733DBB2AA4204F8013DEFD92146FFF75E
:1070F000B5FF0BB030BD2DE9F04186B000AF0546BD
:107100000E46381D142114463B60FFF73BFD132843
:107110000ED8391D2846FFF7A1FF04461EB12846A8
:10712000FFF7B5FF044420461837BD46BDE8F0819F
:1071300000F1080323F00703E846ADEB030D2246F8
:10714000411C3B686846FFF71DFD69462846FFF76E
:1071500085FF0446C546E1E710B50446FFF735FD57
:10716000204610BD0348044A04490023836001F00F
:107170005BB800BF68E6032050E5032059710D009D
:107180000021FFF7B3BB0021FFF7B8BB10B50446E1
:1071900008462170FFF78AFB00236360204610BD7C
:1071A00010B504460078FFF7EBFF48B920784FF69A
:1071B000FF71FFF76BFB2078BDE81040FFF7E3BFDE
:1071C00010BD0078FFF7DFBF400830B5186000241D
:1071D00018688842E5B206D90134082C02D040086C
:1071E0001860F5E70725024B5B5D137030BD00BFEB
:1071F00078A40D002DE9F04306468FB000780C46C8
:10720000FFF7BEFF00281BDB35781422002109A8F8
:1072100001F05AFF0B23002209A92846ADF82430BB
:10722000FFF754FB9DF82D3013B19DF82C5055B14C
:107230000027B946B846012523795DB1C3B10020C6
:107240000FB0BDE8F083DDF830809DF834909DF8F4
:107250003570F1E7002B35D1A368434508D18DF88F
:1072600020908DF82170BDF82020A3899A42E6D0A5
:107270000023A1688DF80F300A9804AB0DF10F02BE
:10728000FFF7A2FF217985B989B9A36843450ED3D9
:107290008DF820908DF82170BDF82020A3899A42A6
:1072A00005D1049B434502D1C9E70029F9D1002348
:1072B0000193637B00939DF80F20237B3078FFF7C9
:1072C0000DFBBCE7CDE900552B462A460121F5E729
:1072D00008B50078FFF7E2FAC0B208BD10B5044661
:1072E000FFF7CCF9E060236820465B6998470028E7
:1072F00008DAFFF7C3F9E368C01AA3689842F2D32B
:107300004FF0FF3010BDF8B506460D461746002475
:10731000BC4207D03046FFF7E1FF031E02DB2B55CE
:107320000134F5E72046F8BD2DE9F04757EC106B26
:1073300080460C4610EE100A00220023394601F068
:10734000BDFC28B107F100431F462D2304F8013B83
:1073500000234FF001090A22D9B2884503D902FB64
:1073600009F90133F8E7484601F0CCF932463B46CB
:1073700001F032FA06460F4601F000FD05468A4646
:1073800001F0F4F902460B463046394601F06CF83C
:10739000134B002201F0A6FC10B101354AF1000A9E
:1073A0004A462846D317514601F0D0FC0123154622
:1073B00021460A2200F06DFDB8F1000F0DD02046E5
:1073C00001F0C0FE2E23211823540A2243462846EA
:1073D0000131BDE8F04700F05CBDBDE8F08700BFBB
:1073E0000000E03F10B504460068FFF7B3FB2046FD
:1073F00010BD10B50446006808B1FFF7ABFB0023D1
:10740000C4E90133236010BD38B504460D46006859
:107410000131FFF7A7FB10B1C4E90005012038BD19
:1074200010B50368044623B143688B4201D30120A1
:1074300010BD2046FFF7E8FF0028F9D0A368002B15
:10744000F5D122681370F2E737B50D461146019267
:107450000446FFF7E5FF019A28B92046FFF7C9FF68
:10746000204603B030BDA2602946206801F01EFE10
:107470002268A3680021D154F2E7002313B5C0E9C4
:10748000003304468360037341B10846019101F063
:1074900059FE019902462046FFF7D6FF204602B06A
:1074A00010BD884210B5044605D00B682BB18A6820
:1074B0001946FFF7C9FF204610BDFFF79AFFFAE70C
:1074C00010B500230446C0E9003383600373FFF75F
:1074D000E8FF204610BD13B5044659B10846019196
:1074E00001F030FE019902462046FFF7ADFF20462D
:1074F00002B010BDFFF77DFFF9E710B504468AB072
:107500000023C4E90033A3602373084601A900F0F7
:10751000EBFC01A92046FFF7DEFF20460AB010BDB4
:1075200010B504468AB000230846C4E90033A360BE
:10753000237301A9C0B2FFF7F7FE01A92046FFF7A8
:10754000CAFF20460AB010BD70B505460E4609B9FF
:10755000002070BD6AB1846814442146FFF760FFC3
:107560000028F5D02868AB683146184401F0E2FDE8
:10757000AC600120EDE78A680968FFF7E5BF13B545
:107580000446084651B1019101F0DCFD0199024623
:10759000204602B0BDE81040FFF7D6BF02B010BDD4
:1075A00010B50446006818B1FFF7D4FA0023236031
:1075B00010BD10B50446FFF7F3FF204610BD0000D4
:1075C00010B5094B094C022200201A60084B2060BC
:1075D000A080A071A360FFF719FA2046054A06496A
:1075E000BDE8104000F020BE84E6032078E60320CA
:1075F0000000FFFF50E50320B3750D0013B50368CD
:107600008DF80710DC6B01224FF0FF330DF10701FD
:10761000A04702B010BD10B40368DC6B4FF0FF331D
:10762000A4465DF8044B604713B5134602688DF815
:107630000710D46B0DF107010122A04702B010BD65
:10764000704738B543691A68002A054610DAB3F85E
:107650008620B3F884309A420AD103681B699847A0
:10766000044628B92B682846DB6A9847204638BD6F
:107670000120FCE743691868C043C00F704770479A
:10768000064B994210B500F10C0405D0084600F0F5
:10769000D5FD002808BF0024204610BDB8A30D006A
:1076A00010B5AC21044600F0C4FD204610BDFCF727
:1076B000F6BC2DE9F0414FF0000886B01D46C0F839
:1076C000048004460E4617464146102202A801F0E7
:1076D000FBFC6B1C09D04FF47A70B5FBF0F3CDE9DD
:1076E000023800FB13535843049060691023009341
:1076F000006802AB41F2050240F6FF71FFF796F811
:10770000002807DAFFF746FA03686360002006B036
:10771000BDE8F0816069002300683A463146FFF712
:10772000A5F8031EEEDB1846F1E7000038B58469C2
:107730000A4B036005467CB16368013B63605BB93B
:10774000236820469B689847A368013BA3601BB948
:1077500023682046DB689847284638BDBCA40D0046
:1077600010B50446FFF7E2FF20461C2100F061FD42
:10777000204610BD70B54D69054B04468C3544F864
:10778000043B06460FCD0FC42B682370304670BDF6
:107790002CA40D0010B54369B3F88620B3F88430EB
:1077A0009A42044605D06369B3F8842013441879DB
:1077B00010BD03681B6998470028F4D14FF0FF30D3
:1077C000F6E710B54369B3F88620B3F884309A42DF
:1077D000044608D06369B3F88420511CA3F88410D0
:1077E0001344187910BD03681B6998470028F1D12C
:1077F0004FF0FF30F6E7F8B543691746B3F8862037
:10780000B3F884309A4205460E4616D06969B1F83D
:107810008430B1F88640E41ABC4228BF3C460433A9
:1078200022461944304601F041FC6A69B2F88430BE
:107830002344A2F884302046F8BD03681B699847AA
:107840000028E3D14FF0FF34F5E742690023A2F8A6
:1078500084304269A2F8863070472DE9F0411F4616
:1078600003680C46DB6A8AB0054616469847237DB6
:10787000D5F81480042B0CBF02200A200622012117
:10788000FEF7FCFFC8F800006B691B68002B08DAE4
:107890002B682846DB6A0024984720460AB0BDE8DA
:1078A000F0812846FFF7D1FFB7B1002303A9F8B252
:1078B0000393ADF81030FEF789FF0028E8D168691E
:1078C00006230093006803AB41F20B0240F6FF7100
:1078D000FEF7ACFF0028DBD11C22002103A801F039
:1078E000F3FB237D042B1DD14FF407733046ADF815
:1078F0000C30FEF783FFADF80E006068FEF776FFF0
:1079000004906B691C22186803A9FEF79FFF0028EA
:10791000BED104340FCC6D698C350FC523682B7034
:107920000124BAE740F61C233046ADF80C30FEF7D0
:1079300065FF05AEADF80E00231D04F114071868AD
:107940005968324603C20833BB421646F7D1D8E71E
:1079500030B54269B2F886308BB004462BB1B2F82C
:1079600084209A4201D1FFF770FF616908680028FE
:1079700018DBB1F886507F2D14D804310823C5F1E7
:1079800080022944FEF76AFF002813DD6369B3F81B
:1079900086200AB9A3F884206369B3F886201044CE
:1079A000A3F886006369B3F88600B3F88430C01A80
:1079B0000BB030BDFFF7EEF803680B2BF2D0FFF7EA
:1079C000E9F803680B2BEDD020230025CDE9023523
:1079D000FFF7E0F803680193084B0949009302AAF6
:1079E0002B463220FFF70AF863691868FEF726FF76
:1079F00063694FF0FF321A60D4E700BF87A40D001F
:107A000080A40D0010B5436904461868002801DB06
:107A1000FEF714FF63694FF0FF321A6060691122AC
:107A200000218C3001F050FB2046BDE81040FFF7EC
:107A30000CBF10B5002304460160C0F884308830C4
:107A4000FFF7DAF9204610BD73B500234FF47A72C0
:107A5000C0E901320E4A0361026043610446AC2072
:107A60000191FCF718FB051E05F10C0608D0012357
:107A7000C5E90133074B01992B603046FFF7D9FF69
:107A80002046C4E90565FFF7E0FE02B070BD00BF07
:107A9000BCA40D00A0A40D0010B54FF0FF310446AA
:107AA000FFF7D2FF204610BD10B50446006800283D
:107AB00001DBFEF7C3FE204610BD0C30FFF7F4BF1C
:107AC00070B586B0064601AD6846FFF7E5F90FCD03
:107AD000341D0FC42B682370304606B070BD000003
:107AE0002DE9F0439846036893B00D460024DB6A05
:107AF00006461746984728466B462246214600947C
:107B0000FEF78CFE0546002863D1009B002B4BD06E
:107B10005B69002B48D006A8FFF76EF9009B5C69F3
:107B20006378022B04D1211D06A8FFF7C9FF26E0C8
:107B30000A2B24D11122294601A801F0C5FAA36815
:107B4000002B38D004F108030DF1040C1834186828
:107B50005968624603C20833A3429446F7D106230C
:107B600001A90CA88DF81430FFF754F90DF1340C6D
:107B7000BCE80F0007AC0FC4DCF80030237006A887
:107B8000FFF75AF980B1336807ADD3F82090124B54
:107B90000C930FCD0DAC0FC42B6823703A464346AF
:107BA0000CA93046C84705460098FEF72FFE284628
:107BB00013B0BDE8F083E368002BC3D14FF6FF702C
:107BC000D4F81090FEF712FE8145BBD104F11401E8
:107BD000AAE72546E8E700BF2CA40D00024B1A686F
:107BE000024B1A60704700BFE8E4032088E60320D8
:107BF00070474174704708B5007CFEF7BFFE20EA6D
:107C0000E07008BD08B5007CFEF790FE20EAE07049
:107C100008BD08B5007CFEF799FE40EAE07008BD9B
:107C200008B5007CFEF78AFE40EAE07008BD007CE3
:107C3000FEF794BE37B5457C04462DB1207C03B0D9
:107C4000BDE83040FEF76ABE007C0191FEF796FE6B
:107C500000280199F2DC284603B030BD10B514218C
:107C6000044600F0E6FA204610BD000010B54FF0C3
:107C7000000C0446084611464FF47A72C4E901C26A
:107C8000044A22600122207462741A46FEF73EFE06
:107C9000204610BD24A50D0013B50E4C2178BFF36E
:107CA0005B8F11F0010112D120460191FCF704FA1B
:107CB000019960B1084A094B0948FFF7D7FF2046F0
:107CC000FCF7FFF9074A0849054800F0ADFA0448F7
:107CD00002B010BD8CE6032090E6032014E70320D9
:107CE00098E7032050E50320F17B0D0041747047B5
:107CF000704708B50021007CFEF760FE40EAE070A6
:107D000008BD08B50121007CFEF758FE40EAE0708E
:107D100008BD08B5007CFEF749FE20EAE07008BD0A
:107D200008B5007CFEF73AFE20EAE07008BD13B506
:107D30000446007C0191FEF739FE0028019901DC20
:107D4000607C20B1207CFEF741FE20EAE07002B0AA
:107D500010BD007CFEF742BE10B51421044600F0B1
:107D600068FA204610BD000010B54FF47A7304463F
:107D700008460021C4E90113044B23600123207449
:107D800063741146FEF702FE204610BD54A50D0097
:107D900010B514220446002101F096F9204610BDCA
:107DA00010B5104C88B003A8FFF7F2FF2178BFF39D
:107DB0005B8F11F0010111D120460191FCF77CF994
:107DC000019958B103AA0848FFF7CEFF2046FCF7F7
:107DD00078F9064A0649044800F026FA024808B035
:107DE00010BD00BFACE70320B0E7032050E503203F
:107DF000F17C0D00002240681146FEF75BBE0022B8
:107E000040681146FEF776BE002240681146FEF734
:107E100081BE40680022FEF775BE4068002281F0F6
:107E20000101FEF75FBE002340681A461946FEF7BF
:107E300051BE002340681A461946FEF743BE002291
:107E400040681146FEF726BE406800220221FEF778
:107E500029BE002340681A46FEF714BE024B0422D6
:107E60005A60024A1A607047C4E7032084A50D00D7
:107E700010B5044601F066F9013823182046834204
:107E800006D90278197800F8011B03F80129F6E7F2
:107E900010BD70B50C46911E2229054622D82046F9
:107EA0006DB1B5FBF2F602FB1655E9B2092D94BF90
:107EB00030315731C9B200F8011B3546F0E70246B0
:107EC00023443021934202D902F8011BFAE71A1A1F
:107ED000834238BF0022002383542046FFF7C8FFA7
:107EE000204670BD0020FCE738B5031E0C46154641
:107EF0000EDAB3F1004F4FF02D0214BF584218466E
:107F000001230A702A461944FFF7C3FF204638BDF3
:107F10000123F9E7014B1860704700BFECE4032030
:107F200008B50B4B43B1FFF73BFF03681B6998474C
:107F3000002801DDAFF30080064B43B1FFF7ACFE34
:107F400003681B699847002801DDAFF3008008BD76
:107F5000000000000000000008B5FFF7E1FFFEF799
:107F60008DFB014B186008BDD4E703200248034A8B
:107F70000349121A01F09AB800F4032004F4032014
:107F8000E8A70D0007B5002300931A466FF07701AC
:107F9000FEF75EFD03B05DF804FB000007B5438803
:107FA0000A2B08D0502B0BD1094B1B684BB103B0E7
:107FB0005DF804EB1847FFF7E5FF03B05DF804FB3D
:107FC000002300931A466FF07701FEF741FDF4E7B6
:107FD000D0E7032038B5124C1248134D0021FEF7AC
:107FE000E1FD2368AB42114B0CBF012200221A7045
:107FF00002D0FFF7BBFF2560FEF730FB044601F01F
:108000006BF80B4B13B12046AFF3008000210848FA
:10801000FEF730FDBDE8384006480021FEF70EBDF2
:1080200000F40320157F0D001E1C279ACCE70320C7
:10803000000000009D7F0D00232813B502D9002009
:1080400002B010BDA0F10B03022B1AD8174C2178F7
:10805000BFF35B8F11F001010BD120460191FCF7BA
:108060002BF8019928B11248FFF790F82046FCF749
:1080700028F80F4B1878FEF721FC0028DFD10120EB
:10808000DEE7012809D800F0A7F80021007CFEF700
:1080900085FB80F00100C0B2D2E709380128EED894
:1080A000FFF7FAFD007CFEF761FCF2E744E60320EF
:1080B00048E60320232838B504460D460AD8FF2990
:1080C00008D0FFF7B9FF28B129462046BDE838405F
:1080D000FEF7E4BA38BD38B504460D46FEF7E6FAB9
:1080E000FF2810D0062804D84D2323FA00F0C30738
:1080F00009D42046FFF7A0FF28B129462046BDE855
:108100003840FEF7DBBA38BD10B50446FEF7CEFAAC
:10811000031FDBB2012B08D92046FFF78DFF20B1EA
:108120002046BDE81040FEF7D1BA002010BD0D2852
:1081300010B504469CBF0E34A4B22046FFF77CFF66
:1081400050B103212046FEF7A1FA032804D12046AE
:10815000BDE81040FEF7CABA002010BD38B504468D
:108160000D46FFF769FFF0B104212046FEF78EFAB5
:10817000042805D1A9B22046BDE83840FEF7AEBAC2
:1081800002212046FEF782FA02280CD12046FEF793
:108190008DFA012801D0042805D129462046BDE8E2
:1081A0003840FEF7ABBA38BD38B5002320254380F0
:1081B000142304460380856005610649284600F0C3
:1081C0003AF804496060284600F035F8E06020463F
:1081D00038BD00BFB8A50D0030B50F4D2978BFF3ED
:1081E0005B8F11F0010487B013D12846FBF764FFC1
:1081F00078B101A8FFF7D8FF01AA21460748FEF78A
:108200006BFD2846FBF75DFF054A0649034800F071
:108210000BF8024807B030BDD8E70320DCE70320A5
:1082200050E50320816C0D000B460146184600F016
:108230002FBFFBF734BFFBF730BF0000014900F050
:10824000F9B800BFD4A50D007FB500241023CDE9F7
:108250000234036800949E698DF8044015466B460D
:108260001268B0479DF8043003F00603062B03BFE5
:10827000009B2B600120204604B070BD0098904206
:1082800014BF01200620704710B5034B036004465D
:1082900000F0CDF8204610BD14A60D0010B5044620
:1082A000FFF7F2FF20460821FFF7C3FF204610BD6D
:1082B0002DE9F0411F46DDE90834DDF818809845C6
:1082C0000646154607D1079900F0B4F818B1657154
:1082D0000020BDE8F0813946304600F0ABF80028B8
:1082E000F6D00123C4F800802571A371F0E738B5FA
:1082F00015461C4600F09EF820B10823E3600623D3
:108300002560237138BD73B505460C4601921E46A3
:1083100000F090F850B9032E08D82368019A5B69E1
:108320002946204602B0BDE87040184702B070BD33
:1083300010B5034B03600446FFF7A6FF204610BDAF
:1083400074A60D0010B50446FFF7F2FF20460C217D
:10835000FFF76FFF204610BDF7B5089F974205460F
:108360000E4614460AD0A86802680897156A314676
:108370002246AC4603B0BDE8F04060471946019381
:1083800000F058F8019B0028EDD0062003B0F0BDA6
:108390002DE9F14F0D461946DDE90A4BDDE90CA642
:1083A00081461746984600F045F890B1002D34609C
:1083B000377109DB61198A450CBF06210121B171B2
:1083C000002001B0BDE8F08F0235F9D10123B3716F
:1083D000F6E7544506D15946484600F02BF808B157
:1083E0007771EDE7D9F808000368CDE90CA6CDE96F
:1083F0000A4BDC693A4643462946A44601B0BDE82B
:10840000F04F60472DE9F04107460C4615461E46E1
:10841000FFF76DFF48B9B86803689F692A4633467D
:108420002146BC46BDE8F0416047BDE8F081704799
:1084300000207047814208B50ED0406803782A2B8F
:108440000CD049680B782A2B08BF013100F068FE78
:10845000B0FA80F0400908BD0120FCE70020FAE7EF
:1084600081F0004102E000BF83F0004330B54FEAE5
:1084700041044FEA430594EA050F08BF90EA020F52
:108480001FBF54EA000C55EA020C7FEA645C7FEAE5
:10849000655C00F0E2804FEA5454D4EB5555B8BF08
:1084A0006D420CDD2C4480EA020281EA030382EA79
:1084B000000083EA010180EA020281EA0303362D0B
:1084C00088BF30BD11F0004F4FEA01314FF4801CDE
:1084D0004CEA113102D0404261EB410113F0004FF0
:1084E0004FEA03334CEA133302D0524263EB4303A7
:1084F00094EA050F00F0A780A4F10104D5F1200E45
:108500000DDB02FA0EFC22FA05F2801841F100019F
:1085100003FA0EF2801843FA05F359410EE0A5F173
:1085200020050EF1200E012A03FA0EFC28BF4CF0A4
:10853000020C43FA05F3C01851EBE37101F000455A
:1085400007D54FF0000EDCF1000C7EEB00006EEB67
:108550000101B1F5801F1BD3B1F5001F0CD34908F1
:108560005FEA30004FEA3C0C04F101044FEA445248
:1085700012F5800F80F09A80BCF1004F08BF5FEACF
:10858000500C50F1000041EB045141EA050130BDAF
:108590005FEA4C0C404141EB0101013C28BFB1F5C1
:1085A000801FE9D291F0000F04BF01460020B1FA0C
:1085B00081F308BF2033A3F10B03B3F120020CDADF
:1085C0000C3208DD02F1140CC2F10C0201FA0CF0BD
:1085D00021FA02F10CE002F11402D8BFC2F1200C22
:1085E00001FA02F120FA0CFCDCBF41EA0C019040D8
:1085F000E41AA2BF01EB0451294330BD6FEA040421
:108600001F3C1CDA0C340EDC04F11404C4F120020B
:1086100020FA04F001FA02F340EA030021FA04F31D
:1086200045EA030130BDC4F10C04C4F1200220FA74
:1086300002F001FA04F340EA0300294630BD21FAB2
:1086400004F0294630BD94F0000F83F4801306BF78
:1086500081F480110134013D4EE77FEA645C18BF6C
:108660007FEA655C29D094EA050F08BF90EA020F03
:1086700005D054EA000C04BF1946104630BD91EAFB
:10868000030F1EBF0021002030BD5FEA545C05D1FE
:108690004000494128BF41F0004130BD14F580043D
:1086A0003CBF01F5801130BD01F0004545F0FE41B1
:1086B00041F470014FF0000030BD7FEA645C1ABFE6
:1086C000194610467FEA655C1CBF0B46024650EA1D
:1086D000013406BF52EA033591EA030F41F4002149
:1086E00030BD00BF90F0000F04BF0021704730B5CF
:1086F0004FF4806404F132044FF000054FF00001A4
:1087000050E700BF90F0000F04BF0021704730B564
:108710004FF4806404F1320410F0004548BF404239
:108720004FF000013EE700BF42004FEAE2014FEA8E
:1087300031014FEA02701FBF12F07F4393F07F4F69
:1087400081F06051704732F07F4208BF704793F06C
:108750007F4F04BF41F40021704730B54FF460747F
:1087600001F0004521F000411CE700BF50EA010282
:1087700008BF704730B54FF000050AE050EA01022B
:1087800008BF704730B511F0004502D5404261EB9B
:1087900041014FF4806404F132045FEA915C3FF4DC
:1087A000D8AE4FF003025FEADC0C18BF03325FEA79
:1087B000DC0C18BF033202EBDC02C2F1200300FA2A
:1087C00003FC20FA02F001FA03FE40EA0E0021FA4F
:1087D00002F11444BDE600BF70B54FF0FF0C4CF43D
:1087E000E06C1CEA11541DBF1CEA135594EA0C0FEF
:1087F00095EA0C0F00F0DEF82C4481EA030621EA2A
:108800004C5123EA4C5350EA013518BF52EA033564
:1088100041F4801143F4801338D0A0FB02CE4FF016
:108820000005E1FB02E506F00042E0FB03E54FF046
:108830000006E1FB03569CF0000F18BF4EF0010E3E
:10884000A4F1FF04B6F5007F64F5407404D25FEA3A
:108850004E0E6D4146EB060642EAC62141EA5551ED
:108860004FEAC52040EA5E504FEACE2EB4F1FD0C2F
:1088700088BFBCF5E06F1ED8BEF1004F08BF5FEAAD
:10888000500E50F1000041EB045170BD06F000465F
:1088900046EA010140EA020081EA0301B4EB5C040C
:1088A000C2BFD4EB0C0541EA045170BD41F4801104
:1088B0004FF0000E013C00F3AB8014F1360FDEBF29
:1088C000002001F0004170BDC4F10004203C35DA05
:1088D0000C341BDC04F11404C4F1200500FA05F388
:1088E00020FA04F001FA05F240EA020001F0004229
:1088F00021F0004110EBD37021FA04F642EB06019F
:108900005EEA430E08BF20EAD37070BDC4F10C04C8
:10891000C4F1200500FA04F320FA05F001FA04F28C
:1089200040EA020001F0004110EBD37041F1000178
:108930005EEA430E08BF20EAD37070BDC4F1200583
:1089400000FA05F24EEA020E20FA04F301FA05F2EB
:1089500043EA020321FA04F001F0004121FA04F293
:1089600020EA020000EBD3705EEA430E08BF20EA63
:10897000D37070BD94F0000F0FD101F0004640009D
:1089800041EB010111F4801F08BF013CF7D041EA1F
:10899000060195F0000F18BF704703F00046520023
:1089A00043EB030313F4801F08BF013DF7D043EAF4
:1089B0000603704794EA0C0F0CEA135518BF95EAAA
:1089C0000C0F0CD050EA410618BF52EA4306D1D131
:1089D00081EA030101F000414FF0000070BD50EA50
:1089E000410606BF1046194652EA430619D094EADA
:1089F0000C0F02D150EA013613D195EA0C0F05D1C4
:108A000052EA03361CBF104619460AD181EA030117
:108A100001F0004141F0FE4141F470014FF00000CF
:108A200070BD41F0FE4141F4780170BD70B54FF06A
:108A3000FF0C4CF4E06C1CEA11541DBF1CEA1355EA
:108A400094EA0C0F95EA0C0F00F0A7F8A4EB0504CC
:108A500081EA030E52EA03354FEA013100F08880C3
:108A60004FEA03334FF0805545EA131343EA12638C
:108A70004FEA022245EA111545EA10654FEA002641
:108A80000EF000419D4208BF964244F1FD0404F5FA
:108A9000407402D25B084FEA3202B61A65EB030556
:108AA0005B084FEA32024FF480104FF4002CB6EB13
:108AB000020E75EB030E22BFB61A754640EA0C0093
:108AC0005B084FEA3202B6EB020E75EB030E22BFD3
:108AD000B61A754640EA5C005B084FEA3202B6EB14
:108AE000020E75EB030E22BFB61A754640EA9C00D3
:108AF0005B084FEA3202B6EB020E75EB030E22BFA3
:108B0000B61A754640EADC0055EA060E18D04FEA60
:108B1000051545EA16754FEA06164FEAC30343EA00
:108B200052734FEAC2025FEA1C1CC0D111F4801FCD
:108B30000BD141EA00014FF000004FF0004CB6E7C6
:108B400011F4801F04BF01430020B4F1FD0C88BF65
:108B5000BCF5E06F3FF6AFAEB5EB030C04BFB6EB70
:108B6000020C5FEA500C50F1000041EB045170BD63
:108B70000EF0004E4EEA113114EB5C04C2BFD4EB90
:108B80000C0541EA045170BD41F480114FF0000E14
:108B9000013C90E645EA060E8DE60CEA135594EA90
:108BA0000C0F08BF95EA0C0F3FF43BAF94EA0C0F93
:108BB0000AD150EA01347FF434AF95EA0C0F7FF408
:108BC00025AF104619462CE795EA0C0F06D152EA5C
:108BD00003353FF4FDAE1046194622E750EA410640
:108BE00018BF52EA43067FF4C5AE50EA41047FF451
:108BF0000DAF52EA43057FF4EBAE12E74FF0FF3CB6
:108C000006E000BF4FF0010C02E000BF4FF0010C86
:108C10004DF804CD4FEA410C7FEA6C5C4FEA430CFF
:108C200018BF7FEA6C5C1BD001B050EA410C0CBF4E
:108C300052EA430C91EA030F02BF90EA020F0020B0
:108C4000704710F1000F91EA030F58BF994208BF17
:108C500090422CBFD8176FEAE37040F001007047D4
:108C60004FEA410C7FEA6C5C02D150EA013C07D12B
:108C70004FEA430C7FEA6C5CD6D152EA033CD3D076
:108C80005DF8040B704700BF8446104662468C4670
:108C90001946634600E000BF01B5FFF7B7FF0028A3
:108CA00048BF10F1000F01BD4DF808EDFFF7F4FFCC
:108CB0000CBF012000205DF808FB00BF4DF808ED57
:108CC000FFF7EAFF34BF012000205DF808FB00BF7A
:108CD0004DF808EDFFF7E0FF94BF012000205DF89C
:108CE00008FB00BF4DF808EDFFF7CEFF94BF012051
:108CF00000205DF808FB00BF4DF808EDFFF7C4FF4A
:108D000034BF012000205DF808FB00BF4A0011D2EB
:108D100012F5001211D20DD56FF47873B3EB6252D5
:108D20000ED44FEAC12343F0004343EA505323FAE1
:108D300002F070474FF00000704750EA013002D156
:108D40004FF0FF3070474FF00000704753B94AB9F9
:108D5000002908BF00281CBF4FF0FF314FF0FF3043
:108D600000F08CB9ADF1080C6DE904CE00F024F8E8
:108D7000DDF804E0DDE9022304B07047D0B50C4B08
:108D8000002206460F46FFF727FDFFF7BFFF044608
:108D9000FFF7A8FC074B0022FFF71EFD02460B461B
:108DA00030463946FFF760FBFFF7B0FF2146D0BDE4
:108DB0000000F03D0000F0412DE9F047089D044619
:108DC0008C46002B40F083808A42174647D9B2FA7E
:108DD00082F242B1C2F1200024FA00F091409740A3
:108DE00040EA010C94404FEA1748230CBCFBF8F60C
:108DF0001FFA87FE08FB16C143EA014306FB0EF18A
:108E0000994209D9FB1806F1FF3080F01981994287
:108E100040F21681023E3B445B1AA4B2B3FBF8F069
:108E200008FB103344EA034400FB0EFEA64509D9B3
:108E30003C1900F1FF3380F00581A64540F2028124
:108E400002383C4440EA0640A4EB0E0400261DB163
:108E5000D4400023C5E900433146BDE8F08702B99C
:108E6000FFDEB2FA82F2002A50D1CB1B4FEA174E36
:108E70001FFA87F80126B3FBFEFC210C0EFB1C3306
:108E800041EA034108FB0CF38B4207D979180CF136
:108E9000FF3002D28B4200F2E9808446C91AA3B2A5
:108EA000B1FBFEF00EFB101143EA014408FB00F891
:108EB000A04507D93C1900F1FF3302D2A04500F2CA
:108EC000D9801846A4EB080440EA0C40BFE78B4267
:108ED00009D9002D00F0B1800026C5E90001304617
:108EE0003146BDE8F087B3FA83F6002E4AD18B42B3
:108EF00002D3824200F2B880841A61EB03010120A0
:108F00008C46002DA8D0C5E9004CA5E7C2F120038E
:108F100020FA03F6974001FA02F04FEA174ED940C3
:108F20003043030CB1FBFEF61FFA87F80EFB161157
:108F300043EA014306FB08F1994204FA02F409D915
:108F4000FB1806F1FF3C80F08D80994240F28A8048
:108F5000023E3B445B1A81B2B3FBFEF00EFB1033C2
:108F600041EA034100FB08F38B4207D9791800F16D
:108F7000FF3C73D28B4271D902383944CB1A40EA94
:108F8000064678E7C6F1200C03FA06F422FA0CF341
:108F90001C4320FA0CF701FA06F34FEA144E21FAAB
:108FA0000CF11F433B0CB1FBFEF91FFA84F80EFBDA
:108FB000191143EA014109FB08FA8A4502FA06F24F
:108FC00000FA06F308D9611809F1FF3048D28A4542
:108FD00046D9A9F102092144A1EB0A01BFB2B1FBB4
:108FE000FEF00EFB101147EA014700FB08F8B845F8
:108FF00007D9E71900F1FF312ED2B8452CD9023834
:10900000274440EA0940A7EB0807A0FB02894F4527
:10901000C64649461AD317D05DB1B3EB0E0267EBD3
:10902000010707FA0CFCF2404CEA0202F740C5E9DE
:10903000002700263146BDE8F0872E4628460BE77C
:109040000646E9E61846FDE64345E5D2B8EB020ED2
:1090500069EB04010138DFE70846D2E760468DE797
:109060008146B9E7664675E730464AE7ACF1020C3F
:10907000394413E702383C4424E700BF704700BF7F
:109080000A22002100F0F4B80A22002100F0F0B812
:1090900010B5054C13462CB10A4601460220AFF329
:1090A000008010BD2046FCE7000000000A44914209
:1090B00000F1FF3300D1704710B511F8014B03F8F0
:1090C000014F9142F9D110BD02440346934200D1B1
:1090D000704703F8011BF9E738B50D4B1D68AB6B02
:1090E00004467BB91820FDF72DFD0A4A0A4BA863F8
:1090F000C0E90023094B83600B23838101220023F5
:10910000C0E90423AB6B00221C615A6138BD00BF6B
:10911000ECE403200E33CDAB34126DE6ECDE05003B
:1091200010F8012B11F8013B012A28BF9A42F7D011
:10913000D01A7047034611F8012B03F8012B002ABF
:10914000F9D17047034613F8012B002AFBD1181AF6
:109150000138704710B50139034632B111F8014F9B
:1091600003F8014B013A002CF7D11A440021934235
:1091700000D110BD03F8011BF9E700002DE9F0470D
:109180003A4E86468C4660461CF8014BA55D15F0AC
:109190000805F8D12D2C33D19CF800404FF0010880
:1091A00000F1020C002B5CD0102B0CD1302C0AD11A
:1091B0009CF8000000F0DF0058284DD19CF80140D9
:1091C00010230CF1020C08F10047013F0026B7FB09
:1091D000F3F9304603FB197AA4F13005092D18D8AC
:1091E0002C46A34224DD751C07D081451DD301D137
:1091F000A2451ADB00FB034001261CF8014BEBE7FC
:109200002B2C08BF9CF80040A84608BF00F1020CB8
:10921000C8E7A4F14105192D01D8373CE1E7A4F1D5
:109220006105192D04D8573CDBE74FF0FF36E4E722
:10923000731C06D12223CEF80030384642B9BDE86F
:10924000F087B8F1000F00D04042002AF7D00EB1ED
:109250000CF1FF311160F2E73024002BB3D1082369
:10926000B1E7302CA4D00A23ADE700BFAEA60D00B5
:1092700013460A46014602480068FFF77FBF00BF59
:10928000ECE4032021400D005D400D0085400D0001
:1092900089400D0000000000256900256C69006907
:1092A0006E006F75740070776D00647700617700F1
:1092B000506F74656E74696F6D6574657220616E50
:1092C0006420627574746F6E2077696C6C206D6FAA
:1092D0006E69746F72207468652074656D70657254
:1092E000617475726500494344454C446E434B5666
:1092F0006F496367486E64786E5F4C3575333578B7
:10930000686D676D4857004C696768742076616CBA
:109310007565206469707065642062656C6F772084
:109320006C6F77657220626F756E6421004C69679F
:1093300068742076616C756520686173206469705B
:109340007065642062656C6F77206C6F7765722042
:10935000626F756E6421004C696768742076616C79
:109360007565206861732072656163686564207447
:1093700061726765742072616E676521004C696770
:1093800068742076616C7565206861732070617304
:109390007365642068696768657220626F756E64C2
:1093A00021000A416D6269656E742056616C7565B5
:1093B0003A200043656C736975733A200046616812
:1093C00072656E686569743A200076770025322EE2
:1093D00037660063616C6962726174696E6700462A
:1093E00069727374206C69676874206C6576656C4B
:1093F0002073657420746F0A005365636F6E642078
:109400006C69676874206C6576656C207365742080
:10941000746F0A00506F74656E74696F6D65746562
:10942000722076616C75653A0A00696E6974006233
:109430006C6E6B696E660076657200312E302E3070
:1094400000682D6265617400343500627566662DB2
:10945000696E003130323400646576005061727498
:1094600069636C65006275696C64004A756C2031D3
:109470003420323032312031373A34363A35340004
:10948000000000000000003E5B4F5B3E3E6B4F6BF8
:109490003E1C3E7C3E1C183C7E3C181C577D571CD5
:1094A0001C5E7F5E1C00183C1800FFE7C3E7FF004E
:1094B00018241800FFE7DBE7FF30483A060E26299C
:1094C000792926407F050507407F05253F5A3CE75F
:1094D0003C5A7F3E1C1C08081C1C3E7F14227F2225
:1094E000145F5F005F5F06097F017F006689956AF0
:1094F000606060606094A2FFA29408047E0408107B
:10950000207E201008082A1C08081C2A08081E10A3
:109510001010100C1E0C1E0C30383E3830060E3E5B
:109520000E06000000000000005F000000070007BA
:1095300000147F147F14242A7F2A122313086462E4
:1095400036495620500008070300001C2241000045
:1095500041221C002A1C7F1C2A08083E08080080A3
:10956000703000080808080800006060002010083B
:1095700004023E5149453E00427F4000724949493C
:10958000462141494D331814127F1027454545396E
:109590003C4A494931412111090736494949364672
:1095A0004949291E00001400000040340000000852
:1095B00014224114141414140041221408020159F5
:1095C00009063E415D594E7C1211127C7F49494982
:1095D000363E414141227F4141413E7F4949494117
:1095E0007F090909013E414151737F0808087F0046
:1095F000417F41002040413F017F081422417F40CC
:109600004040407F021C027F7F0408107F3E4141A2
:10961000413E7F090909063E4151215E7F09192912
:1096200046264949493203017F01033F4040403FFC
:109630001F2040201F3F4038403F6314081463033D
:10964000047804036159494D43007F4141410204BC
:10965000081020004141417F0402010204404040C3
:109660004040000307080020545478407F284444B9
:10967000383844444428384444287F3854545418D3
:1096800000087E090218A4A49C787F0804047800CE
:10969000447D40002040403D007F102844000041B0
:1096A0007F40007C047804787C08040478384444C3
:1096B0004438FC1824241818242418FC7C080404BA
:1096C00008485454542404043F44243C4040207C23
:1096D0001C2040201C3C4030403C44281028444C76
:1096E0009090907C4464544C440008364100000043
:1096F000770000004136080002010204023C2623E4
:10970000263C1EA1A161123A4040207A385454559B
:109710005921555579412254547842215554784065
:1097200020545579400C1E527212395555555939ED
:109730005454545939555454580000457C41000242
:10974000457D420001457C407D1211127DF02825A7
:1097500028F07C545545002054547C547C0A097FE1
:109760004932494949323A4444443A324A484830F5
:109770003A4141217A3A42402078009DA0A07D3DA7
:109780004242423D3D4040403D3C24FF2424487E2F
:109790004943662B2FFC2F2BFF0929F620C0887E1A
:1097A000090320545479410000447D413048484A1F
:1097B00032384040227A007A0A0A727D0D19317DD2
:1097C0002629292F28262929292630484D402038A6
:1097D0000808080808080808382F10C8ACBA2F1065
:1097E0002834FA00007B000008142A142222142ACC
:1097F00014085500550055AA55AA55AAFF55FF55FE
:10980000FF000000FF00101010FF00141414FF00F0
:109810001010FF00FF1010F010F0141414FC0014CE
:1098200014F700FF0000FF00FF1414F404FC1414EC
:1098300017101F10101F101F1414141F00101010E9
:10984000F0000000001F101010101F10101010F07A
:1098500010000000FF101010101010101010FF105A
:10986000000000FF140000FF00FF00001F101700A1
:1098700000FC04F414141710171414F404F400007A
:10988000FF00F714141414141414F700F71414142C
:10989000171410101F101F141414F4141010F010CB
:1098A000F000001F101F0000001F14000000FC1437
:1098B0000000F010F01010FF10FF141414FF14102B
:1098C00010101F00000000F010FFFFFFFFFFF0F07E
:1098D000F0F0F0FFFFFF0000000000FFFF0F0F0F90
:1098E0000F0F3844443844FC4A4A4A347E02020688
:1098F00006027E027E0263554941633844443C04BB
:10990000407E201E2006027E020299A5E7A5991C32
:109910002A492A1C4C7201724C304A4D4D30304855
:10992000784830BC625A463D3E494949007E0101B3
:10993000017E2A2A2A2A2A44445F444440514A4448
:109940004040444A51400000FF0103E080FF000016
:1099500008086B6B083612362436060F090F06000E
:109960000018180000001010003040FF0101001F17
:1099700001011E00191D1712003C3C3C3C00000078
:1099800000000000000000000000000000000000D7
:10999000000000001D580D0031700D00A5400D00A5
:1099A00025520D0027520D0059520D0035520D0061
:1099B00047520D0069510D0025520D0051540D0004
:1099C000CB530D0071520D00AF520D00E9520D0046
:1099D0002F530D00CD530D004B530D006465666190
:1099E000756C7420004D5342004C5342003C535060
:1099F0004953657474696E67732064656661756C3C
:109A0000743E003C53504953657474696E6773200B
:109A100025732575202573204D4F444525753E003F
:109A2000000000000000000059590D002B590D00E6
:109A30002D590D0000000000000180000000000012
:109A4000000000000380000000000000000000078C
:109A5000C000000000000000000007C0000000007F
:109A600000000000000FC000000000000000000027
:109A70001FE00000000000000000001FE0000000E8
:109A80000000000000003FE00000000000000000B7
:109A9000003FF00000000000000000007FF0000028
:109AA00000000000001FF87FF00000000000000030
:109AB0003FFE7FF0000000000000003FFF7FF0004D
:109AC0000000000000001FFFFBE00000000000009D
:109AD000000FFFF9FFC00000000000000FFFF9FFBA
